{
  "contractName": "Voting",
  "abi": [
    {
      "anonymous": false,
      "inputs": [
        {
          "indexed": true,
          "internalType": "address",
          "name": "previousOwner",
          "type": "address"
        },
        {
          "indexed": true,
          "internalType": "address",
          "name": "newOwner",
          "type": "address"
        }
      ],
      "name": "OwnershipTransferred",
      "type": "event"
    },
    {
      "anonymous": false,
      "inputs": [
        {
          "indexed": false,
          "internalType": "uint256",
          "name": "proposalId",
          "type": "uint256"
        }
      ],
      "name": "ProposalRegistered",
      "type": "event"
    },
    {
      "anonymous": false,
      "inputs": [
        {
          "indexed": false,
          "internalType": "address",
          "name": "voter",
          "type": "address"
        },
        {
          "indexed": false,
          "internalType": "uint256",
          "name": "proposalId",
          "type": "uint256"
        }
      ],
      "name": "Voted",
      "type": "event"
    },
    {
      "anonymous": false,
      "inputs": [
        {
          "indexed": false,
          "internalType": "address",
          "name": "voterAddress",
          "type": "address"
        }
      ],
      "name": "VoterBlackListed",
      "type": "event"
    },
    {
      "anonymous": false,
      "inputs": [
        {
          "indexed": false,
          "internalType": "address",
          "name": "voterAddress",
          "type": "address"
        }
      ],
      "name": "VoterRegistered",
      "type": "event"
    },
    {
      "anonymous": false,
      "inputs": [
        {
          "indexed": false,
          "internalType": "enum Voting.WorkflowStatus",
          "name": "previousStatus",
          "type": "uint8"
        },
        {
          "indexed": false,
          "internalType": "enum Voting.WorkflowStatus",
          "name": "newStatus",
          "type": "uint8"
        }
      ],
      "name": "WorkflowStatusChange",
      "type": "event"
    },
    {
      "inputs": [],
      "name": "currentStatus",
      "outputs": [
        {
          "internalType": "enum Voting.WorkflowStatus",
          "name": "",
          "type": "uint8"
        }
      ],
      "stateMutability": "view",
      "type": "function"
    },
    {
      "inputs": [],
      "name": "owner",
      "outputs": [
        {
          "internalType": "address",
          "name": "",
          "type": "address"
        }
      ],
      "stateMutability": "view",
      "type": "function"
    },
    {
      "inputs": [
        {
          "internalType": "uint256",
          "name": "",
          "type": "uint256"
        }
      ],
      "name": "proposalList",
      "outputs": [
        {
          "internalType": "string",
          "name": "description",
          "type": "string"
        },
        {
          "internalType": "uint256",
          "name": "voteCount",
          "type": "uint256"
        }
      ],
      "stateMutability": "view",
      "type": "function"
    },
    {
      "inputs": [],
      "name": "renounceOwnership",
      "outputs": [],
      "stateMutability": "nonpayable",
      "type": "function"
    },
    {
      "inputs": [
        {
          "internalType": "address",
          "name": "newOwner",
          "type": "address"
        }
      ],
      "name": "transferOwnership",
      "outputs": [],
      "stateMutability": "nonpayable",
      "type": "function"
    },
    {
      "inputs": [
        {
          "internalType": "address",
          "name": "",
          "type": "address"
        }
      ],
      "name": "whitelist",
      "outputs": [
        {
          "internalType": "bool",
          "name": "isRegistered",
          "type": "bool"
        },
        {
          "internalType": "bool",
          "name": "hasVoted",
          "type": "bool"
        },
        {
          "internalType": "uint256",
          "name": "votedProposalId",
          "type": "uint256"
        }
      ],
      "stateMutability": "view",
      "type": "function"
    },
    {
      "inputs": [],
      "name": "winningProposalId",
      "outputs": [
        {
          "internalType": "uint256",
          "name": "",
          "type": "uint256"
        }
      ],
      "stateMutability": "view",
      "type": "function"
    },
    {
      "inputs": [
        {
          "internalType": "address",
          "name": "_voterAddress",
          "type": "address"
        }
      ],
      "name": "addVoter",
      "outputs": [],
      "stateMutability": "nonpayable",
      "type": "function"
    },
    {
      "inputs": [],
      "name": "StartProposalsRegistration",
      "outputs": [
        {
          "internalType": "enum Voting.WorkflowStatus",
          "name": "",
          "type": "uint8"
        }
      ],
      "stateMutability": "nonpayable",
      "type": "function"
    },
    {
      "inputs": [
        {
          "internalType": "string",
          "name": "_proposal",
          "type": "string"
        }
      ],
      "name": "registerProposal",
      "outputs": [],
      "stateMutability": "nonpayable",
      "type": "function"
    },
    {
      "inputs": [],
      "name": "EndProposalsRegistration",
      "outputs": [
        {
          "internalType": "enum Voting.WorkflowStatus",
          "name": "",
          "type": "uint8"
        }
      ],
      "stateMutability": "nonpayable",
      "type": "function"
    },
    {
      "inputs": [],
      "name": "StartVoting",
      "outputs": [
        {
          "internalType": "enum Voting.WorkflowStatus",
          "name": "",
          "type": "uint8"
        }
      ],
      "stateMutability": "nonpayable",
      "type": "function"
    },
    {
      "inputs": [
        {
          "internalType": "uint256",
          "name": "_proposalID",
          "type": "uint256"
        }
      ],
      "name": "Vote",
      "outputs": [],
      "stateMutability": "nonpayable",
      "type": "function"
    },
    {
      "inputs": [],
      "name": "EndVoting",
      "outputs": [
        {
          "internalType": "enum Voting.WorkflowStatus",
          "name": "",
          "type": "uint8"
        }
      ],
      "stateMutability": "nonpayable",
      "type": "function"
    },
    {
      "inputs": [],
      "name": "countVotes",
      "outputs": [
        {
          "internalType": "enum Voting.WorkflowStatus",
          "name": "",
          "type": "uint8"
        }
      ],
      "stateMutability": "nonpayable",
      "type": "function"
    }
  ],
  "bytecode": "0x60806040526000600560006101000a81548160ff021916908360058111156200002d576200002c62000132565b5b02179055503480156200003f57600080fd5b5062000060620000546200006660201b60201c565b6200006e60201b60201c565b62000161565b600033905090565b60008060009054906101000a900473ffffffffffffffffffffffffffffffffffffffff169050816000806101000a81548173ffffffffffffffffffffffffffffffffffffffff021916908373ffffffffffffffffffffffffffffffffffffffff1602179055508173ffffffffffffffffffffffffffffffffffffffff168173ffffffffffffffffffffffffffffffffffffffff167f8be0079c531659141344cd1fd0a4f28419497f9722a3daafe3b4186f6b6457e060405160405180910390a35050565b7f4e487b7100000000000000000000000000000000000000000000000000000000600052602160045260246000fd5b6122a280620001716000396000f3fe608060405234801561001057600080fd5b50600436106100f55760003560e01c80639b19251a11610097578063dcd6a5cd11610066578063dcd6a5cd14610255578063ef8a923514610271578063f2fde38b1461028f578063f4ab9adf146102ab576100f5565b80639b19251a146101b6578063b647990a146101e8578063c6311e3f14610206578063c64963c514610237576100f5565b8063715018a6116100d3578063715018a6146101525780637a99c0a61461015c5780637b3d70421461017a5780638da5cb5b14610198576100f5565b806325e07db2146100fa5780632f95355b146101185780633080555114610134575b600080fd5b6101026102c7565b60405161010f91906116a6565b60405180910390f35b610132600480360381019061012d919061181b565b610458565b005b61013c61062e565b60405161014991906116a6565b60405180910390f35b61015a6107bf565b005b610164610847565b60405161017191906116a6565b60405180910390f35b6101826109d8565b60405161018f91906116a6565b60405180910390f35b6101a0610b69565b6040516101ad91906118a5565b60405180910390f35b6101d060048036038101906101cb91906118ec565b610b92565b6040516101df9392919061194d565b60405180910390f35b6101f0610bd6565b6040516101fd91906116a6565b60405180910390f35b610220600480360381019061021b91906119b0565b610d66565b60405161022e929190611a65565b60405180910390f35b61023f610e12565b60405161024c9190611a95565b60405180910390f35b61026f600480360381019061026a91906119b0565b610e18565b005b61027961117a565b60405161028691906116a6565b60405180910390f35b6102a960048036038101906102a491906118ec565b61118d565b005b6102c560048036038101906102c091906118ec565b611285565b005b60006102d161149c565b73ffffffffffffffffffffffffffffffffffffffff166102ef610b69565b73ffffffffffffffffffffffffffffffffffffffff1614610345576040517f08c379a000000000000000000000000000000000000000000000000000000000815260040161033c90611afc565b60405180910390fd5b600160058111156103595761035861162f565b5b600560009054906101000a900460ff16600581111561037b5761037a61162f565b5b146103bb576040517f08c379a00000000000000000000000000000000000000000000000000000000081526004016103b290611b8e565b60405180910390fd5b6000600560009054906101000a900460ff1690506002600560006101000a81548160ff021916908360058111156103f5576103f461162f565b5b02179055507f0a97a4ee45751e2abf3e4fc8946939630b11b371ea8ae39ccdc3056e98f5cc3f81600560009054906101000a900460ff1660405161043a929190611bae565b60405180910390a1600560009054906101000a900460ff1691505090565b6001600581111561046c5761046b61162f565b5b600560009054906101000a900460ff16600581111561048e5761048d61162f565b5b146104ce576040517f08c379a00000000000000000000000000000000000000000000000000000000081526004016104c590611b8e565b60405180910390fd5b600360003373ffffffffffffffffffffffffffffffffffffffff1673ffffffffffffffffffffffffffffffffffffffff16815260200190815260200160002060000160009054906101000a900460ff1661055d576040517f08c379a000000000000000000000000000000000000000000000000000000000815260040161055490611c23565b60405180910390fd5b61056760016114a4565b61057160016114ba565b600360003373ffffffffffffffffffffffffffffffffffffffff1673ffffffffffffffffffffffffffffffffffffffff1681526020019081526020016000206001018190555080600460006105c660016114ba565b815260200190815260200160002060000190805190602001906105ea92919061158c565b507f92e393e9b54e2f801d3ea4beb0c5e71a21cc34a5d34b77d0fb8a3aa1650dc18f61061660016114ba565b6040516106239190611a95565b60405180910390a150565b600061063861149c565b73ffffffffffffffffffffffffffffffffffffffff16610656610b69565b73ffffffffffffffffffffffffffffffffffffffff16146106ac576040517f08c379a00000000000000000000000000000000000000000000000000000000081526004016106a390611afc565b60405180910390fd5b600360058111156106c0576106bf61162f565b5b600560009054906101000a900460ff1660058111156106e2576106e161162f565b5b14610722576040517f08c379a000000000000000000000000000000000000000000000000000000000815260040161071990611c8f565b60405180910390fd5b6000600560009054906101000a900460ff1690506004600560006101000a81548160ff0219169083600581111561075c5761075b61162f565b5b02179055507f0a97a4ee45751e2abf3e4fc8946939630b11b371ea8ae39ccdc3056e98f5cc3f81600560009054906101000a900460ff166040516107a1929190611bae565b60405180910390a1600560009054906101000a900460ff1691505090565b6107c761149c565b73ffffffffffffffffffffffffffffffffffffffff166107e5610b69565b73ffffffffffffffffffffffffffffffffffffffff161461083b576040517f08c379a000000000000000000000000000000000000000000000000000000000815260040161083290611afc565b60405180910390fd5b61084560006114c8565b565b600061085161149c565b73ffffffffffffffffffffffffffffffffffffffff1661086f610b69565b73ffffffffffffffffffffffffffffffffffffffff16146108c5576040517f08c379a00000000000000000000000000000000000000000000000000000000081526004016108bc90611afc565b60405180910390fd5b600260058111156108d9576108d861162f565b5b600560009054906101000a900460ff1660058111156108fb576108fa61162f565b5b1461093b576040517f08c379a000000000000000000000000000000000000000000000000000000000815260040161093290611c8f565b60405180910390fd5b6000600560009054906101000a900460ff1690506003600560006101000a81548160ff021916908360058111156109755761097461162f565b5b02179055507f0a97a4ee45751e2abf3e4fc8946939630b11b371ea8ae39ccdc3056e98f5cc3f81600560009054906101000a900460ff166040516109ba929190611bae565b60405180910390a1600560009054906101000a900460ff1691505090565b60006109e261149c565b73ffffffffffffffffffffffffffffffffffffffff16610a00610b69565b73ffffffffffffffffffffffffffffffffffffffff1614610a56576040517f08c379a0000000000000000000000000000000000000000000000000000000008152600401610a4d90611afc565b60405180910390fd5b60006005811115610a6a57610a6961162f565b5b600560009054906101000a900460ff166005811115610a8c57610a8b61162f565b5b14610acc576040517f08c379a0000000000000000000000000000000000000000000000000000000008152600401610ac390611d21565b60405180910390fd5b6000600560009054906101000a900460ff1690506001600560006101000a81548160ff02191690836005811115610b0657610b0561162f565b5b02179055507f0a97a4ee45751e2abf3e4fc8946939630b11b371ea8ae39ccdc3056e98f5cc3f81600560009054906101000a900460ff16604051610b4b929190611bae565b60405180910390a1600560009054906101000a900460ff1691505090565b60008060009054906101000a900473ffffffffffffffffffffffffffffffffffffffff16905090565b60036020528060005260406000206000915090508060000160009054906101000a900460ff16908060000160019054906101000a900460ff16908060010154905083565b6000610be061149c565b73ffffffffffffffffffffffffffffffffffffffff16610bfe610b69565b73ffffffffffffffffffffffffffffffffffffffff1614610c54576040517f08c379a0000000000000000000000000000000000000000000000000000000008152600401610c4b90611afc565b60405180910390fd5b60046005811115610c6857610c6761162f565b5b600560009054906101000a900460ff166005811115610c8a57610c8961162f565b5b14610cca576040517f08c379a0000000000000000000000000000000000000000000000000000000008152600401610cc190611d8d565b60405180910390fd5b6000600560009054906101000a900460ff16905060058060006101000a81548160ff02191690836005811115610d0357610d0261162f565b5b02179055507f0a97a4ee45751e2abf3e4fc8946939630b11b371ea8ae39ccdc3056e98f5cc3f81600560009054906101000a900460ff16604051610d48929190611bae565b60405180910390a1600560009054906101000a900460ff1691505090565b6004602052806000526040600020600091509050806000018054610d8990611ddc565b80601f0160208091040260200160405190810160405280929190818152602001828054610db590611ddc565b8015610e025780601f10610dd757610100808354040283529160200191610e02565b820191906000526020600020905b815481529060010190602001808311610de557829003601f168201915b5050505050908060010154905082565b60025481565b60036005811115610e2c57610e2b61162f565b5b600560009054906101000a900460ff166005811115610e4e57610e4d61162f565b5b14610e8e576040517f08c379a0000000000000000000000000000000000000000000000000000000008152600401610e8590611c8f565b60405180910390fd5b600360003373ffffffffffffffffffffffffffffffffffffffff1673ffffffffffffffffffffffffffffffffffffffff16815260200190815260200160002060000160009054906101000a900460ff16610f1d576040517f08c379a0000000000000000000000000000000000000000000000000000000008152600401610f1490611e5a565b60405180910390fd5b600360003373ffffffffffffffffffffffffffffffffffffffff1673ffffffffffffffffffffffffffffffffffffffff16815260200190815260200160002060000160019054906101000a900460ff1615610fad576040517f08c379a0000000000000000000000000000000000000000000000000000000008152600401610fa490611ec6565b60405180910390fd5b604051806020016040528060008152508051906020012060046000838152602001908152602001600020600001604051610fe79190611f85565b60405180910390201415611030576040517f08c379a000000000000000000000000000000000000000000000000000000000815260040161102790611fe8565b60405180910390fd5b80600360003373ffffffffffffffffffffffffffffffffffffffff1673ffffffffffffffffffffffffffffffffffffffff168152602001908152602001600020600101819055506001600360003373ffffffffffffffffffffffffffffffffffffffff1673ffffffffffffffffffffffffffffffffffffffff16815260200190815260200160002060000160016101000a81548160ff02191690831515021790555060016004600083815260200190815260200160002060010160008282546110f99190612037565b92505081905550600460008281526020019081526020016000206001015460046000600254815260200190815260200160002060010154101561113e57806002819055505b7f4d99b957a2bc29a30ebd96a7be8e68fe50a3c701db28a91436490b7d53870ca4338260405161116f92919061208d565b60405180910390a150565b600560009054906101000a900460ff1681565b61119561149c565b73ffffffffffffffffffffffffffffffffffffffff166111b3610b69565b73ffffffffffffffffffffffffffffffffffffffff1614611209576040517f08c379a000000000000000000000000000000000000000000000000000000000815260040161120090611afc565b60405180910390fd5b600073ffffffffffffffffffffffffffffffffffffffff168173ffffffffffffffffffffffffffffffffffffffff161415611279576040517f08c379a000000000000000000000000000000000000000000000000000000000815260040161127090612128565b60405180910390fd5b611282816114c8565b50565b61128d61149c565b73ffffffffffffffffffffffffffffffffffffffff166112ab610b69565b73ffffffffffffffffffffffffffffffffffffffff1614611301576040517f08c379a00000000000000000000000000000000000000000000000000000000081526004016112f890611afc565b60405180910390fd5b600060058111156113155761131461162f565b5b600560009054906101000a900460ff1660058111156113375761133661162f565b5b14611377576040517f08c379a000000000000000000000000000000000000000000000000000000000815260040161136e906121e0565b60405180910390fd5b600360008273ffffffffffffffffffffffffffffffffffffffff1673ffffffffffffffffffffffffffffffffffffffff16815260200190815260200160002060000160009054906101000a900460ff1615611407576040517f08c379a00000000000000000000000000000000000000000000000000000000081526004016113fe9061224c565b60405180910390fd5b6001600360008373ffffffffffffffffffffffffffffffffffffffff1673ffffffffffffffffffffffffffffffffffffffff16815260200190815260200160002060000160006101000a81548160ff0219169083151502179055507fb6be2187d059cc2a55fe29e0e503b566e1e0f8c8780096e185429350acffd3dd8160405161149191906118a5565b60405180910390a150565b600033905090565b6001816000016000828254019250508190555050565b600081600001549050919050565b60008060009054906101000a900473ffffffffffffffffffffffffffffffffffffffff169050816000806101000a81548173ffffffffffffffffffffffffffffffffffffffff021916908373ffffffffffffffffffffffffffffffffffffffff1602179055508173ffffffffffffffffffffffffffffffffffffffff168173ffffffffffffffffffffffffffffffffffffffff167f8be0079c531659141344cd1fd0a4f28419497f9722a3daafe3b4186f6b6457e060405160405180910390a35050565b82805461159890611ddc565b90600052602060002090601f0160209004810192826115ba5760008555611601565b82601f106115d357805160ff1916838001178555611601565b82800160010185558215611601579182015b828111156116005782518255916020019190600101906115e5565b5b50905061160e9190611612565b5090565b5b8082111561162b576000816000905550600101611613565b5090565b7f4e487b7100000000000000000000000000000000000000000000000000000000600052602160045260246000fd5b6006811061166f5761166e61162f565b5b50565b60008190506116808261165e565b919050565b600061169082611672565b9050919050565b6116a081611685565b82525050565b60006020820190506116bb6000830184611697565b92915050565b6000604051905090565b600080fd5b600080fd5b600080fd5b600080fd5b6000601f19601f8301169050919050565b7f4e487b7100000000000000000000000000000000000000000000000000000000600052604160045260246000fd5b611728826116df565b810181811067ffffffffffffffff82111715611747576117466116f0565b5b80604052505050565b600061175a6116c1565b9050611766828261171f565b919050565b600067ffffffffffffffff821115611786576117856116f0565b5b61178f826116df565b9050602081019050919050565b82818337600083830152505050565b60006117be6117b98461176b565b611750565b9050828152602081018484840111156117da576117d96116da565b5b6117e584828561179c565b509392505050565b600082601f830112611802576118016116d5565b5b81356118128482602086016117ab565b91505092915050565b600060208284031215611831576118306116cb565b5b600082013567ffffffffffffffff81111561184f5761184e6116d0565b5b61185b848285016117ed565b91505092915050565b600073ffffffffffffffffffffffffffffffffffffffff82169050919050565b600061188f82611864565b9050919050565b61189f81611884565b82525050565b60006020820190506118ba6000830184611896565b92915050565b6118c981611884565b81146118d457600080fd5b50565b6000813590506118e6816118c0565b92915050565b600060208284031215611902576119016116cb565b5b6000611910848285016118d7565b91505092915050565b60008115159050919050565b61192e81611919565b82525050565b6000819050919050565b61194781611934565b82525050565b60006060820190506119626000830186611925565b61196f6020830185611925565b61197c604083018461193e565b949350505050565b61198d81611934565b811461199857600080fd5b50565b6000813590506119aa81611984565b92915050565b6000602082840312156119c6576119c56116cb565b5b60006119d48482850161199b565b91505092915050565b600081519050919050565b600082825260208201905092915050565b60005b83811015611a175780820151818401526020810190506119fc565b83811115611a26576000848401525b50505050565b6000611a37826119dd565b611a4181856119e8565b9350611a518185602086016119f9565b611a5a816116df565b840191505092915050565b60006040820190508181036000830152611a7f8185611a2c565b9050611a8e602083018461193e565b9392505050565b6000602082019050611aaa600083018461193e565b92915050565b7f4f776e61626c653a2063616c6c6572206973206e6f7420746865206f776e6572600082015250565b6000611ae66020836119e8565b9150611af182611ab0565b602082019050919050565b60006020820190508181036000830152611b1581611ad9565b9050919050565b7f5468652070726f706f73616c20726567697374726174696f6e20766f7465206960008201527f73206f7665722021000000000000000000000000000000000000000000000000602082015250565b6000611b786028836119e8565b9150611b8382611b1c565b604082019050919050565b60006020820190508181036000830152611ba781611b6b565b9050919050565b6000604082019050611bc36000830185611697565b611bd06020830184611697565b9392505050565b7f596f75277265206e6f7420696e207468652077686974656c6973742021212100600082015250565b6000611c0d601f836119e8565b9150611c1882611bd7565b602082019050919050565b60006020820190508181036000830152611c3c81611c00565b9050919050565b7f54686520766f74696e67206973206f7665722021000000000000000000000000600082015250565b6000611c796014836119e8565b9150611c8482611c43565b602082019050919050565b60006020820190508181036000830152611ca881611c6c565b9050919050565b7f5468652070726f706f73616c20726567697374726174696f6e206973206f766560008201527f7220210000000000000000000000000000000000000000000000000000000000602082015250565b6000611d0b6023836119e8565b9150611d1682611caf565b604082019050919050565b60006020820190508181036000830152611d3a81611cfe565b9050919050565b7f54686520636f756e74696e67206f6620766f746573206973206f766572202100600082015250565b6000611d77601f836119e8565b9150611d8282611d41565b602082019050919050565b60006020820190508181036000830152611da681611d6a565b9050919050565b7f4e487b7100000000000000000000000000000000000000000000000000000000600052602260045260246000fd5b60006002820490506001821680611df457607f821691505b60208210811415611e0857611e07611dad565b5b50919050565b7f596f75277265206e6f7420696e207468652077686974656c6973742021000000600082015250565b6000611e44601d836119e8565b9150611e4f82611e0e565b602082019050919050565b60006020820190508181036000830152611e7381611e37565b9050919050565b7f596f7527726520616c726561647920766f746564000000000000000000000000600082015250565b6000611eb06014836119e8565b9150611ebb82611e7a565b602082019050919050565b60006020820190508181036000830152611edf81611ea3565b9050919050565b600081905092915050565b60008190508160005260206000209050919050565b60008154611f1381611ddc565b611f1d8186611ee6565b94506001821660008114611f385760018114611f4957611f7c565b60ff19831686528186019350611f7c565b611f5285611ef1565b60005b83811015611f7457815481890152600182019150602081019050611f55565b838801955050505b50505092915050565b6000611f918284611f06565b915081905092915050565b7f546869732070726f706f73616c20494420646f6573206e6f7420657869737400600082015250565b6000611fd2601f836119e8565b9150611fdd82611f9c565b602082019050919050565b6000602082019050818103600083015261200181611fc5565b9050919050565b7f4e487b7100000000000000000000000000000000000000000000000000000000600052601160045260246000fd5b600061204282611934565b915061204d83611934565b9250827fffffffffffffffffffffffffffffffffffffffffffffffffffffffffffffffff0382111561208257612081612008565b5b828201905092915050565b60006040820190506120a26000830185611896565b6120af602083018461193e565b9392505050565b7f4f776e61626c653a206e6577206f776e657220697320746865207a65726f206160008201527f6464726573730000000000000000000000000000000000000000000000000000602082015250565b60006121126026836119e8565b915061211d826120b6565b604082019050919050565b6000602082019050818103600083015261214181612105565b9050919050565b7f566f74657220726567697374726174696f6e2073657373696f6e206973206f7660008201527f65722c20706c65617365207761697420666f7220746865206e65787420766f7460208201527f696e672021000000000000000000000000000000000000000000000000000000604082015250565b60006121ca6045836119e8565b91506121d582612148565b606082019050919050565b600060208201905081810360008301526121f9816121bd565b9050919050565b7f566f74657220697320616c7265616c6479207265676973746572656420210000600082015250565b6000612236601e836119e8565b915061224182612200565b602082019050919050565b6000602082019050818103600083015261226581612229565b905091905056fea264697066735822122015ef051222dacc7307771ebaef9913fb6c6483e630be4e6ceb47d6048e530d2864736f6c634300080b0033",
  "immutableReferences": {},
  "source": "// SPDX-License-Identifier: MIT\r\n\r\npragma solidity ^0.8.0;\r\n\r\nimport \"@openzeppelin/contracts/access/Ownable.sol\";\r\nimport \"@openzeppelin/contracts/utils/Counters.sol\";\r\n\r\ncontract Voting is Ownable {\r\n    //enum\r\n    //struct\r\n    //variable\r\n    //event\r\n    //modifier\r\n    //constructor\r\n    //fonctions (regrouper fonction view) \r\n\r\n    struct Voter {\r\n        bool isRegistered;\r\n        bool hasVoted;\r\n        uint votedProposalId;\r\n    }\r\n    struct Proposal {\r\n        string description;\r\n        uint voteCount;\r\n    } \r\n\r\n    enum WorkflowStatus {\r\n        registrationVoters,\r\n        ProposalsRegistrationStarted,\r\n        ProposalsRegistrationEnded,\r\n        VotingSessionStarted,\r\n        VotingSessionEnded,\r\n        VotesTallied\r\n    }\r\n    \r\n    \r\n    //Proposal IDs counter\r\n    using Counters for Counters.Counter;\r\n    Counters.Counter private proposalIDs;\r\n\r\n    uint public winningProposalId;\r\n    \r\n    //Whitelist of voters identified by their address\r\n    mapping (address => Voter) public whitelist;\r\n    //List of proposal identified by their proposal ID\r\n    mapping (uint => Proposal) public proposalList;\r\n\r\n    WorkflowStatus public currentStatus = WorkflowStatus.registrationVoters;\r\n\r\n    event VoterRegistered(address voterAddress); \r\n    event VoterBlackListed(address voterAddress);\r\n    event WorkflowStatusChange(WorkflowStatus previousStatus, WorkflowStatus newStatus);\r\n    event ProposalRegistered(uint proposalId);\r\n    event Voted (address voter, uint proposalId);\r\n    \r\n\r\n\r\n    //Voting admin registers a whitelist of voters identified by their Ethereum address\r\n    function addVoter(address _voterAddress) public onlyOwner {\r\n        require(currentStatus == WorkflowStatus.registrationVoters, \"Voter registration session is over, please wait for the next voting !\");\r\n        require(!whitelist[_voterAddress].isRegistered, \"Voter is alrealdy registered !\");\r\n        \r\n        //Register a new voter\r\n        whitelist[_voterAddress].isRegistered = true;\r\n        \r\n        emit VoterRegistered(_voterAddress);\r\n    }\r\n\r\n    //Voting administrator starts proposal recording session\r\n    function StartProposalsRegistration() public onlyOwner returns(WorkflowStatus) {\r\n        require (currentStatus == WorkflowStatus.registrationVoters, \"The proposal registration is over !\");\r\n\r\n        WorkflowStatus oldStatus = currentStatus;\r\n        currentStatus = WorkflowStatus.ProposalsRegistrationStarted;\r\n        emit WorkflowStatusChange(oldStatus, currentStatus);\r\n\r\n        return currentStatus;\r\n    }\r\n\r\n    //Registered voters are allowed to register their proposals while the registration session is active\r\n    function registerProposal(string memory _proposal)  external {\r\n        require (currentStatus == WorkflowStatus.ProposalsRegistrationStarted, \"The proposal registration vote is over !\");\r\n        require(whitelist[msg.sender].isRegistered, \"You're not in the whitelist !!!\");\r\n\r\n        proposalIDs.increment();\r\n        whitelist[msg.sender].votedProposalId = proposalIDs.current();\r\n        proposalList[proposalIDs.current()].description = _proposal;\r\n        emit ProposalRegistered(proposalIDs.current()); \r\n    }\r\n\r\n    //Voting administrator ends proposal recording session\r\n    function EndProposalsRegistration() public onlyOwner returns(WorkflowStatus) {\r\n        require (currentStatus == WorkflowStatus.ProposalsRegistrationStarted, \"The proposal registration vote is over !\");\r\n\r\n        WorkflowStatus oldStatus = currentStatus;\r\n        currentStatus = WorkflowStatus.ProposalsRegistrationEnded;\r\n        emit WorkflowStatusChange(oldStatus, currentStatus);\r\n\r\n        return currentStatus;\r\n    }\r\n\r\n    //The voting administrator starts the voting session\r\n    function StartVoting() public onlyOwner returns(WorkflowStatus) {\r\n\r\n        require (currentStatus == WorkflowStatus.ProposalsRegistrationEnded, \"The voting is over !\");\r\n\r\n        WorkflowStatus oldStatus = currentStatus;\r\n        currentStatus = WorkflowStatus.VotingSessionStarted;\r\n        emit WorkflowStatusChange(oldStatus, currentStatus);\r\n\r\n        return currentStatus;\r\n\r\n    }\r\n\r\n    //Voters can vote for their favorite proposal\r\n    function Vote(uint256 _proposalID) external {\r\n        require (currentStatus == WorkflowStatus.VotingSessionStarted, \"The voting is over !\");\r\n        require(whitelist[msg.sender].isRegistered, \"You're not in the whitelist !\");\r\n        require(!whitelist[msg.sender].hasVoted, \"You're already voted\");\r\n        require(keccak256(bytes(proposalList[_proposalID].description)) != keccak256(bytes(\"\")), \"This proposal ID does not exist\");\r\n\r\n        whitelist[msg.sender].votedProposalId = _proposalID;\r\n        whitelist[msg.sender].hasVoted = true;\r\n        proposalList[_proposalID].voteCount+=1;\r\n        \r\n        if (proposalList[winningProposalId].voteCount < proposalList[_proposalID].voteCount){\r\n              winningProposalId = _proposalID;\r\n        }\r\n        emit Voted(msg.sender, _proposalID );\r\n\r\n    }\r\n\r\n    //The voting administrator ends the voting session\r\n    function EndVoting() public onlyOwner returns(WorkflowStatus) {\r\n        require (currentStatus == WorkflowStatus.VotingSessionStarted, \"The voting is over !\");\r\n\r\n        WorkflowStatus oldStatus = currentStatus;\r\n        currentStatus = WorkflowStatus.VotingSessionEnded;\r\n        emit WorkflowStatusChange(oldStatus, currentStatus);\r\n\r\n        return currentStatus;\r\n         \r\n    }\r\n    \r\n    //L'administrateur du vote comptabilise les votes\r\n    function countVotes() public onlyOwner returns(WorkflowStatus) {\r\n        require (currentStatus == WorkflowStatus.VotingSessionEnded, \"The counting of votes is over !\");\r\n\r\n        WorkflowStatus oldStatus = currentStatus;\r\n        currentStatus = WorkflowStatus.VotesTallied;\r\n        emit WorkflowStatusChange(oldStatus, currentStatus);\r\n\r\n        return currentStatus;\r\n    }\r\n}\r\n",
  "sourcePath": "C:\\Users\\yanni\\Documents\\Formation Alyra\\Truffle\\simple-storage-truffle\\contracts\\Voting.sol",
  "compiler": {
    "name": "solc",
    "version": "0.8.11+commit.d7f03943.Emscripten.clang"
  },
  "schemaVersion": "3.4.4",
  "updatedAt": "2022-02-10T20:43:16.669Z",
  "devdoc": {
    "kind": "dev",
    "methods": {
      "owner()": {
        "details": "Returns the address of the current owner."
      },
      "renounceOwnership()": {
        "details": "Leaves the contract without owner. It will not be possible to call `onlyOwner` functions anymore. Can only be called by the current owner. NOTE: Renouncing ownership will leave the contract without an owner, thereby removing any functionality that is only available to the owner."
      },
      "transferOwnership(address)": {
        "details": "Transfers ownership of the contract to a new account (`newOwner`). Can only be called by the current owner."
      }
    },
    "version": 1
  },
  "userdoc": {
    "kind": "user",
    "methods": {},
    "version": 1
  }
}