{
  "contractName": "Voting",
  "abi": [
    {
      "anonymous": false,
      "inputs": [
        {
          "indexed": true,
          "internalType": "address",
          "name": "previousOwner",
          "type": "address"
        },
        {
          "indexed": true,
          "internalType": "address",
          "name": "newOwner",
          "type": "address"
        }
      ],
      "name": "OwnershipTransferred",
      "type": "event"
    },
    {
      "anonymous": false,
      "inputs": [
        {
          "indexed": false,
          "internalType": "uint256",
          "name": "proposalId",
          "type": "uint256"
        }
      ],
      "name": "ProposalRegistered",
      "type": "event"
    },
    {
      "anonymous": false,
      "inputs": [
        {
          "indexed": false,
          "internalType": "address",
          "name": "voter",
          "type": "address"
        },
        {
          "indexed": false,
          "internalType": "uint256",
          "name": "proposalId",
          "type": "uint256"
        }
      ],
      "name": "Voted",
      "type": "event"
    },
    {
      "anonymous": false,
      "inputs": [
        {
          "indexed": false,
          "internalType": "address",
          "name": "voterAddress",
          "type": "address"
        }
      ],
      "name": "VoterBlackListed",
      "type": "event"
    },
    {
      "anonymous": false,
      "inputs": [
        {
          "indexed": false,
          "internalType": "address",
          "name": "voterAddress",
          "type": "address"
        }
      ],
      "name": "VoterRegistered",
      "type": "event"
    },
    {
      "anonymous": false,
      "inputs": [
        {
          "indexed": false,
          "internalType": "enum Voting.WorkflowStatus",
          "name": "previousStatus",
          "type": "uint8"
        },
        {
          "indexed": false,
          "internalType": "enum Voting.WorkflowStatus",
          "name": "newStatus",
          "type": "uint8"
        }
      ],
      "name": "WorkflowStatusChange",
      "type": "event"
    },
    {
      "inputs": [],
      "name": "currentStatus",
      "outputs": [
        {
          "internalType": "enum Voting.WorkflowStatus",
          "name": "",
          "type": "uint8"
        }
      ],
      "stateMutability": "view",
      "type": "function"
    },
    {
      "inputs": [],
      "name": "owner",
      "outputs": [
        {
          "internalType": "address",
          "name": "",
          "type": "address"
        }
      ],
      "stateMutability": "view",
      "type": "function"
    },
    {
      "inputs": [
        {
          "internalType": "uint256",
          "name": "",
          "type": "uint256"
        }
      ],
      "name": "proposalList",
      "outputs": [
        {
          "internalType": "string",
          "name": "description",
          "type": "string"
        },
        {
          "internalType": "uint256",
          "name": "voteCount",
          "type": "uint256"
        }
      ],
      "stateMutability": "view",
      "type": "function"
    },
    {
      "inputs": [],
      "name": "renounceOwnership",
      "outputs": [],
      "stateMutability": "nonpayable",
      "type": "function"
    },
    {
      "inputs": [
        {
          "internalType": "address",
          "name": "newOwner",
          "type": "address"
        }
      ],
      "name": "transferOwnership",
      "outputs": [],
      "stateMutability": "nonpayable",
      "type": "function"
    },
    {
      "inputs": [
        {
          "internalType": "address",
          "name": "",
          "type": "address"
        }
      ],
      "name": "whitelist",
      "outputs": [
        {
          "internalType": "bool",
          "name": "isRegistered",
          "type": "bool"
        },
        {
          "internalType": "bool",
          "name": "hasVoted",
          "type": "bool"
        },
        {
          "internalType": "uint256",
          "name": "votedProposalId",
          "type": "uint256"
        }
      ],
      "stateMutability": "view",
      "type": "function"
    },
    {
      "inputs": [],
      "name": "winningProposalId",
      "outputs": [
        {
          "internalType": "uint256",
          "name": "",
          "type": "uint256"
        }
      ],
      "stateMutability": "view",
      "type": "function"
    },
    {
      "inputs": [
        {
          "internalType": "address",
          "name": "_voterAddress",
          "type": "address"
        }
      ],
      "name": "addVoter",
      "outputs": [],
      "stateMutability": "nonpayable",
      "type": "function"
    },
    {
      "inputs": [],
      "name": "StartProposalsRegistration",
      "outputs": [
        {
          "internalType": "enum Voting.WorkflowStatus",
          "name": "",
          "type": "uint8"
        }
      ],
      "stateMutability": "nonpayable",
      "type": "function"
    },
    {
      "inputs": [
        {
          "internalType": "string",
          "name": "_proposal",
          "type": "string"
        }
      ],
      "name": "registerProposal",
      "outputs": [],
      "stateMutability": "nonpayable",
      "type": "function"
    },
    {
      "inputs": [],
      "name": "EndProposalsRegistration",
      "outputs": [
        {
          "internalType": "enum Voting.WorkflowStatus",
          "name": "",
          "type": "uint8"
        }
      ],
      "stateMutability": "nonpayable",
      "type": "function"
    },
    {
      "inputs": [],
      "name": "StartVoting",
      "outputs": [
        {
          "internalType": "enum Voting.WorkflowStatus",
          "name": "",
          "type": "uint8"
        }
      ],
      "stateMutability": "nonpayable",
      "type": "function"
    },
    {
      "inputs": [
        {
          "internalType": "uint256",
          "name": "_proposalID",
          "type": "uint256"
        }
      ],
      "name": "Vote",
      "outputs": [],
      "stateMutability": "nonpayable",
      "type": "function"
    },
    {
      "inputs": [],
      "name": "EndVoting",
      "outputs": [
        {
          "internalType": "enum Voting.WorkflowStatus",
          "name": "",
          "type": "uint8"
        }
      ],
      "stateMutability": "nonpayable",
      "type": "function"
    },
    {
      "inputs": [],
      "name": "countVotes",
      "outputs": [
        {
          "internalType": "enum Voting.WorkflowStatus",
          "name": "",
          "type": "uint8"
        }
      ],
      "stateMutability": "nonpayable",
      "type": "function"
    }
  ],
  "bytecode": "0x60806040526000600560006101000a81548160ff021916908360058111156200002d576200002c62000132565b5b02179055503480156200003f57600080fd5b5062000060620000546200006660201b60201c565b6200006e60201b60201c565b62000161565b600033905090565b60008060009054906101000a900473ffffffffffffffffffffffffffffffffffffffff169050816000806101000a81548173ffffffffffffffffffffffffffffffffffffffff021916908373ffffffffffffffffffffffffffffffffffffffff1602179055508173ffffffffffffffffffffffffffffffffffffffff168173ffffffffffffffffffffffffffffffffffffffff167f8be0079c531659141344cd1fd0a4f28419497f9722a3daafe3b4186f6b6457e060405160405180910390a35050565b7f4e487b7100000000000000000000000000000000000000000000000000000000600052602160045260246000fd5b61225280620001716000396000f3fe608060405234801561001057600080fd5b50600436106100f55760003560e01c80639b19251a11610097578063dcd6a5cd11610066578063dcd6a5cd14610255578063ef8a923514610271578063f2fde38b1461028f578063f4ab9adf146102ab576100f5565b80639b19251a146101b6578063b647990a146101e8578063c6311e3f14610206578063c64963c514610237576100f5565b8063715018a6116100d3578063715018a6146101525780637a99c0a61461015c5780637b3d70421461017a5780638da5cb5b14610198576100f5565b806325e07db2146100fa5780632f95355b146101185780633080555114610134575b600080fd5b6101026102c7565b60405161010f9190611656565b60405180910390f35b610132600480360381019061012d91906117cb565b610458565b005b61013c6105de565b6040516101499190611656565b60405180910390f35b61015a61076f565b005b6101646107f7565b6040516101719190611656565b60405180910390f35b610182610988565b60405161018f9190611656565b60405180910390f35b6101a0610b19565b6040516101ad9190611855565b60405180910390f35b6101d060048036038101906101cb919061189c565b610b42565b6040516101df939291906118fd565b60405180910390f35b6101f0610b86565b6040516101fd9190611656565b60405180910390f35b610220600480360381019061021b9190611960565b610d16565b60405161022e929190611a15565b60405180910390f35b61023f610dc2565b60405161024c9190611a45565b60405180910390f35b61026f600480360381019061026a9190611960565b610dc8565b005b61027961112a565b6040516102869190611656565b60405180910390f35b6102a960048036038101906102a4919061189c565b61113d565b005b6102c560048036038101906102c0919061189c565b611235565b005b60006102d161144c565b73ffffffffffffffffffffffffffffffffffffffff166102ef610b19565b73ffffffffffffffffffffffffffffffffffffffff1614610345576040517f08c379a000000000000000000000000000000000000000000000000000000000815260040161033c90611aac565b60405180910390fd5b60016005811115610359576103586115df565b5b600560009054906101000a900460ff16600581111561037b5761037a6115df565b5b146103bb576040517f08c379a00000000000000000000000000000000000000000000000000000000081526004016103b290611b3e565b60405180910390fd5b6000600560009054906101000a900460ff1690506002600560006101000a81548160ff021916908360058111156103f5576103f46115df565b5b02179055507f0a97a4ee45751e2abf3e4fc8946939630b11b371ea8ae39ccdc3056e98f5cc3f81600560009054906101000a900460ff1660405161043a929190611b5e565b60405180910390a1600560009054906101000a900460ff1691505090565b6001600581111561046c5761046b6115df565b5b600560009054906101000a900460ff16600581111561048e5761048d6115df565b5b146104ce576040517f08c379a00000000000000000000000000000000000000000000000000000000081526004016104c590611b3e565b60405180910390fd5b600360003373ffffffffffffffffffffffffffffffffffffffff1673ffffffffffffffffffffffffffffffffffffffff16815260200190815260200160002060000160009054906101000a900460ff1661055d576040517f08c379a000000000000000000000000000000000000000000000000000000000815260040161055490611bd3565b60405180910390fd5b6105676001611454565b8060046000610576600161146a565b8152602001908152602001600020600001908051906020019061059a92919061153c565b507f92e393e9b54e2f801d3ea4beb0c5e71a21cc34a5d34b77d0fb8a3aa1650dc18f6105c6600161146a565b6040516105d39190611a45565b60405180910390a150565b60006105e861144c565b73ffffffffffffffffffffffffffffffffffffffff16610606610b19565b73ffffffffffffffffffffffffffffffffffffffff161461065c576040517f08c379a000000000000000000000000000000000000000000000000000000000815260040161065390611aac565b60405180910390fd5b600360058111156106705761066f6115df565b5b600560009054906101000a900460ff166005811115610692576106916115df565b5b146106d2576040517f08c379a00000000000000000000000000000000000000000000000000000000081526004016106c990611c3f565b60405180910390fd5b6000600560009054906101000a900460ff1690506004600560006101000a81548160ff0219169083600581111561070c5761070b6115df565b5b02179055507f0a97a4ee45751e2abf3e4fc8946939630b11b371ea8ae39ccdc3056e98f5cc3f81600560009054906101000a900460ff16604051610751929190611b5e565b60405180910390a1600560009054906101000a900460ff1691505090565b61077761144c565b73ffffffffffffffffffffffffffffffffffffffff16610795610b19565b73ffffffffffffffffffffffffffffffffffffffff16146107eb576040517f08c379a00000000000000000000000000000000000000000000000000000000081526004016107e290611aac565b60405180910390fd5b6107f56000611478565b565b600061080161144c565b73ffffffffffffffffffffffffffffffffffffffff1661081f610b19565b73ffffffffffffffffffffffffffffffffffffffff1614610875576040517f08c379a000000000000000000000000000000000000000000000000000000000815260040161086c90611aac565b60405180910390fd5b60026005811115610889576108886115df565b5b600560009054906101000a900460ff1660058111156108ab576108aa6115df565b5b146108eb576040517f08c379a00000000000000000000000000000000000000000000000000000000081526004016108e290611c3f565b60405180910390fd5b6000600560009054906101000a900460ff1690506003600560006101000a81548160ff02191690836005811115610925576109246115df565b5b02179055507f0a97a4ee45751e2abf3e4fc8946939630b11b371ea8ae39ccdc3056e98f5cc3f81600560009054906101000a900460ff1660405161096a929190611b5e565b60405180910390a1600560009054906101000a900460ff1691505090565b600061099261144c565b73ffffffffffffffffffffffffffffffffffffffff166109b0610b19565b73ffffffffffffffffffffffffffffffffffffffff1614610a06576040517f08c379a00000000000000000000000000000000000000000000000000000000081526004016109fd90611aac565b60405180910390fd5b60006005811115610a1a57610a196115df565b5b600560009054906101000a900460ff166005811115610a3c57610a3b6115df565b5b14610a7c576040517f08c379a0000000000000000000000000000000000000000000000000000000008152600401610a7390611cd1565b60405180910390fd5b6000600560009054906101000a900460ff1690506001600560006101000a81548160ff02191690836005811115610ab657610ab56115df565b5b02179055507f0a97a4ee45751e2abf3e4fc8946939630b11b371ea8ae39ccdc3056e98f5cc3f81600560009054906101000a900460ff16604051610afb929190611b5e565b60405180910390a1600560009054906101000a900460ff1691505090565b60008060009054906101000a900473ffffffffffffffffffffffffffffffffffffffff16905090565b60036020528060005260406000206000915090508060000160009054906101000a900460ff16908060000160019054906101000a900460ff16908060010154905083565b6000610b9061144c565b73ffffffffffffffffffffffffffffffffffffffff16610bae610b19565b73ffffffffffffffffffffffffffffffffffffffff1614610c04576040517f08c379a0000000000000000000000000000000000000000000000000000000008152600401610bfb90611aac565b60405180910390fd5b60046005811115610c1857610c176115df565b5b600560009054906101000a900460ff166005811115610c3a57610c396115df565b5b14610c7a576040517f08c379a0000000000000000000000000000000000000000000000000000000008152600401610c7190611d3d565b60405180910390fd5b6000600560009054906101000a900460ff16905060058060006101000a81548160ff02191690836005811115610cb357610cb26115df565b5b02179055507f0a97a4ee45751e2abf3e4fc8946939630b11b371ea8ae39ccdc3056e98f5cc3f81600560009054906101000a900460ff16604051610cf8929190611b5e565b60405180910390a1600560009054906101000a900460ff1691505090565b6004602052806000526040600020600091509050806000018054610d3990611d8c565b80601f0160208091040260200160405190810160405280929190818152602001828054610d6590611d8c565b8015610db25780601f10610d8757610100808354040283529160200191610db2565b820191906000526020600020905b815481529060010190602001808311610d9557829003601f168201915b5050505050908060010154905082565b60025481565b60036005811115610ddc57610ddb6115df565b5b600560009054906101000a900460ff166005811115610dfe57610dfd6115df565b5b14610e3e576040517f08c379a0000000000000000000000000000000000000000000000000000000008152600401610e3590611c3f565b60405180910390fd5b600360003373ffffffffffffffffffffffffffffffffffffffff1673ffffffffffffffffffffffffffffffffffffffff16815260200190815260200160002060000160009054906101000a900460ff16610ecd576040517f08c379a0000000000000000000000000000000000000000000000000000000008152600401610ec490611e0a565b60405180910390fd5b600360003373ffffffffffffffffffffffffffffffffffffffff1673ffffffffffffffffffffffffffffffffffffffff16815260200190815260200160002060000160019054906101000a900460ff1615610f5d576040517f08c379a0000000000000000000000000000000000000000000000000000000008152600401610f5490611e76565b60405180910390fd5b604051806020016040528060008152508051906020012060046000838152602001908152602001600020600001604051610f979190611f35565b60405180910390201415610fe0576040517f08c379a0000000000000000000000000000000000000000000000000000000008152600401610fd790611f98565b60405180910390fd5b80600360003373ffffffffffffffffffffffffffffffffffffffff1673ffffffffffffffffffffffffffffffffffffffff168152602001908152602001600020600101819055506001600360003373ffffffffffffffffffffffffffffffffffffffff1673ffffffffffffffffffffffffffffffffffffffff16815260200190815260200160002060000160016101000a81548160ff02191690831515021790555060016004600083815260200190815260200160002060010160008282546110a99190611fe7565b9250508190555060046000828152602001908152602001600020600101546004600060025481526020019081526020016000206001015410156110ee57806002819055505b7f4d99b957a2bc29a30ebd96a7be8e68fe50a3c701db28a91436490b7d53870ca4338260405161111f92919061203d565b60405180910390a150565b600560009054906101000a900460ff1681565b61114561144c565b73ffffffffffffffffffffffffffffffffffffffff16611163610b19565b73ffffffffffffffffffffffffffffffffffffffff16146111b9576040517f08c379a00000000000000000000000000000000000000000000000000000000081526004016111b090611aac565b60405180910390fd5b600073ffffffffffffffffffffffffffffffffffffffff168173ffffffffffffffffffffffffffffffffffffffff161415611229576040517f08c379a0000000000000000000000000000000000000000000000000000000008152600401611220906120d8565b60405180910390fd5b61123281611478565b50565b61123d61144c565b73ffffffffffffffffffffffffffffffffffffffff1661125b610b19565b73ffffffffffffffffffffffffffffffffffffffff16146112b1576040517f08c379a00000000000000000000000000000000000000000000000000000000081526004016112a890611aac565b60405180910390fd5b600060058111156112c5576112c46115df565b5b600560009054906101000a900460ff1660058111156112e7576112e66115df565b5b14611327576040517f08c379a000000000000000000000000000000000000000000000000000000000815260040161131e90612190565b60405180910390fd5b600360008273ffffffffffffffffffffffffffffffffffffffff1673ffffffffffffffffffffffffffffffffffffffff16815260200190815260200160002060000160009054906101000a900460ff16156113b7576040517f08c379a00000000000000000000000000000000000000000000000000000000081526004016113ae906121fc565b60405180910390fd5b6001600360008373ffffffffffffffffffffffffffffffffffffffff1673ffffffffffffffffffffffffffffffffffffffff16815260200190815260200160002060000160006101000a81548160ff0219169083151502179055507fb6be2187d059cc2a55fe29e0e503b566e1e0f8c8780096e185429350acffd3dd816040516114419190611855565b60405180910390a150565b600033905090565b6001816000016000828254019250508190555050565b600081600001549050919050565b60008060009054906101000a900473ffffffffffffffffffffffffffffffffffffffff169050816000806101000a81548173ffffffffffffffffffffffffffffffffffffffff021916908373ffffffffffffffffffffffffffffffffffffffff1602179055508173ffffffffffffffffffffffffffffffffffffffff168173ffffffffffffffffffffffffffffffffffffffff167f8be0079c531659141344cd1fd0a4f28419497f9722a3daafe3b4186f6b6457e060405160405180910390a35050565b82805461154890611d8c565b90600052602060002090601f01602090048101928261156a57600085556115b1565b82601f1061158357805160ff19168380011785556115b1565b828001600101855582156115b1579182015b828111156115b0578251825591602001919060010190611595565b5b5090506115be91906115c2565b5090565b5b808211156115db5760008160009055506001016115c3565b5090565b7f4e487b7100000000000000000000000000000000000000000000000000000000600052602160045260246000fd5b6006811061161f5761161e6115df565b5b50565b60008190506116308261160e565b919050565b600061164082611622565b9050919050565b61165081611635565b82525050565b600060208201905061166b6000830184611647565b92915050565b6000604051905090565b600080fd5b600080fd5b600080fd5b600080fd5b6000601f19601f8301169050919050565b7f4e487b7100000000000000000000000000000000000000000000000000000000600052604160045260246000fd5b6116d88261168f565b810181811067ffffffffffffffff821117156116f7576116f66116a0565b5b80604052505050565b600061170a611671565b905061171682826116cf565b919050565b600067ffffffffffffffff821115611736576117356116a0565b5b61173f8261168f565b9050602081019050919050565b82818337600083830152505050565b600061176e6117698461171b565b611700565b90508281526020810184848401111561178a5761178961168a565b5b61179584828561174c565b509392505050565b600082601f8301126117b2576117b1611685565b5b81356117c284826020860161175b565b91505092915050565b6000602082840312156117e1576117e061167b565b5b600082013567ffffffffffffffff8111156117ff576117fe611680565b5b61180b8482850161179d565b91505092915050565b600073ffffffffffffffffffffffffffffffffffffffff82169050919050565b600061183f82611814565b9050919050565b61184f81611834565b82525050565b600060208201905061186a6000830184611846565b92915050565b61187981611834565b811461188457600080fd5b50565b60008135905061189681611870565b92915050565b6000602082840312156118b2576118b161167b565b5b60006118c084828501611887565b91505092915050565b60008115159050919050565b6118de816118c9565b82525050565b6000819050919050565b6118f7816118e4565b82525050565b600060608201905061191260008301866118d5565b61191f60208301856118d5565b61192c60408301846118ee565b949350505050565b61193d816118e4565b811461194857600080fd5b50565b60008135905061195a81611934565b92915050565b6000602082840312156119765761197561167b565b5b60006119848482850161194b565b91505092915050565b600081519050919050565b600082825260208201905092915050565b60005b838110156119c75780820151818401526020810190506119ac565b838111156119d6576000848401525b50505050565b60006119e78261198d565b6119f18185611998565b9350611a018185602086016119a9565b611a0a8161168f565b840191505092915050565b60006040820190508181036000830152611a2f81856119dc565b9050611a3e60208301846118ee565b9392505050565b6000602082019050611a5a60008301846118ee565b92915050565b7f4f776e61626c653a2063616c6c6572206973206e6f7420746865206f776e6572600082015250565b6000611a96602083611998565b9150611aa182611a60565b602082019050919050565b60006020820190508181036000830152611ac581611a89565b9050919050565b7f5468652070726f706f73616c20726567697374726174696f6e20766f7465206960008201527f73206f7665722021000000000000000000000000000000000000000000000000602082015250565b6000611b28602883611998565b9150611b3382611acc565b604082019050919050565b60006020820190508181036000830152611b5781611b1b565b9050919050565b6000604082019050611b736000830185611647565b611b806020830184611647565b9392505050565b7f596f75277265206e6f7420696e207468652077686974656c6973742021212100600082015250565b6000611bbd601f83611998565b9150611bc882611b87565b602082019050919050565b60006020820190508181036000830152611bec81611bb0565b9050919050565b7f54686520766f74696e67206973206f7665722021000000000000000000000000600082015250565b6000611c29601483611998565b9150611c3482611bf3565b602082019050919050565b60006020820190508181036000830152611c5881611c1c565b9050919050565b7f5468652070726f706f73616c20726567697374726174696f6e206973206f766560008201527f7220210000000000000000000000000000000000000000000000000000000000602082015250565b6000611cbb602383611998565b9150611cc682611c5f565b604082019050919050565b60006020820190508181036000830152611cea81611cae565b9050919050565b7f54686520636f756e74696e67206f6620766f746573206973206f766572202100600082015250565b6000611d27601f83611998565b9150611d3282611cf1565b602082019050919050565b60006020820190508181036000830152611d5681611d1a565b9050919050565b7f4e487b7100000000000000000000000000000000000000000000000000000000600052602260045260246000fd5b60006002820490506001821680611da457607f821691505b60208210811415611db857611db7611d5d565b5b50919050565b7f596f75277265206e6f7420696e207468652077686974656c6973742021000000600082015250565b6000611df4601d83611998565b9150611dff82611dbe565b602082019050919050565b60006020820190508181036000830152611e2381611de7565b9050919050565b7f596f7527726520616c726561647920766f746564000000000000000000000000600082015250565b6000611e60601483611998565b9150611e6b82611e2a565b602082019050919050565b60006020820190508181036000830152611e8f81611e53565b9050919050565b600081905092915050565b60008190508160005260206000209050919050565b60008154611ec381611d8c565b611ecd8186611e96565b94506001821660008114611ee85760018114611ef957611f2c565b60ff19831686528186019350611f2c565b611f0285611ea1565b60005b83811015611f2457815481890152600182019150602081019050611f05565b838801955050505b50505092915050565b6000611f418284611eb6565b915081905092915050565b7f546869732070726f706f73616c20494420646f6573206e6f7420657869737400600082015250565b6000611f82601f83611998565b9150611f8d82611f4c565b602082019050919050565b60006020820190508181036000830152611fb181611f75565b9050919050565b7f4e487b7100000000000000000000000000000000000000000000000000000000600052601160045260246000fd5b6000611ff2826118e4565b9150611ffd836118e4565b9250827fffffffffffffffffffffffffffffffffffffffffffffffffffffffffffffffff0382111561203257612031611fb8565b5b828201905092915050565b60006040820190506120526000830185611846565b61205f60208301846118ee565b9392505050565b7f4f776e61626c653a206e6577206f776e657220697320746865207a65726f206160008201527f6464726573730000000000000000000000000000000000000000000000000000602082015250565b60006120c2602683611998565b91506120cd82612066565b604082019050919050565b600060208201905081810360008301526120f1816120b5565b9050919050565b7f566f74657220726567697374726174696f6e2073657373696f6e206973206f7660008201527f65722c20706c65617365207761697420666f7220746865206e65787420766f7460208201527f696e672021000000000000000000000000000000000000000000000000000000604082015250565b600061217a604583611998565b9150612185826120f8565b606082019050919050565b600060208201905081810360008301526121a98161216d565b9050919050565b7f566f74657220697320616c7265616c6479207265676973746572656420210000600082015250565b60006121e6601e83611998565b91506121f1826121b0565b602082019050919050565b60006020820190508181036000830152612215816121d9565b905091905056fea26469706673582212205d719a6c02a8c7cf87682c844759e0c4b10cd4d02eb02757be9299e07a46b43164736f6c634300080c0033",
  "immutableReferences": {},
  "source": "// SPDX-License-Identifier: MIT\r\n\r\npragma solidity ^0.8.0;\r\n\r\nimport \"@openzeppelin/contracts/access/Ownable.sol\";\r\nimport \"@openzeppelin/contracts/utils/Counters.sol\";\r\n\r\ncontract Voting is Ownable { \r\n    //enum\r\n    //struct\r\n    //variable\r\n    //event\r\n    //modifier\r\n    //constructor\r\n    //fonctions (regrouper fonction view) \r\n\r\n    struct Voter {\r\n        bool isRegistered;\r\n        bool hasVoted;\r\n        uint votedProposalId;\r\n    }\r\n    struct Proposal {\r\n        string description;\r\n        uint voteCount;\r\n    } \r\n\r\n    enum WorkflowStatus {\r\n        registrationVoters,\r\n        ProposalsRegistrationStarted,\r\n        ProposalsRegistrationEnded,\r\n        VotingSessionStarted,\r\n        VotingSessionEnded,\r\n        VotesTallied\r\n    }\r\n    \r\n    \r\n    //Proposal IDs counter\r\n    using Counters for Counters.Counter;\r\n    Counters.Counter private proposalIDs;\r\n\r\n    uint public winningProposalId;\r\n    \r\n    //Whitelist of voters identified by their address\r\n    mapping (address => Voter) public whitelist;\r\n    //List of proposal identified by their proposal ID\r\n    mapping (uint => Proposal) public proposalList;\r\n\r\n    WorkflowStatus public currentStatus = WorkflowStatus.registrationVoters;\r\n\r\n    event VoterRegistered(address voterAddress); \r\n    event VoterBlackListed(address voterAddress);\r\n    event WorkflowStatusChange(WorkflowStatus previousStatus, WorkflowStatus newStatus);\r\n    event ProposalRegistered(uint proposalId);\r\n    event Voted (address voter, uint proposalId);\r\n    \r\n\r\n\r\n    //Voting admin registers a whitelist of voters identified by their Ethereum address\r\n    function addVoter(address _voterAddress) public onlyOwner {\r\n        require(currentStatus == WorkflowStatus.registrationVoters, \"Voter registration session is over, please wait for the next voting !\");\r\n        require(!whitelist[_voterAddress].isRegistered, \"Voter is alrealdy registered !\");\r\n        \r\n        //Register a new voter\r\n        whitelist[_voterAddress].isRegistered = true;\r\n        \r\n        emit VoterRegistered(_voterAddress);\r\n    }\r\n\r\n    //Voting administrator starts proposal recording session\r\n    function StartProposalsRegistration() public onlyOwner returns(WorkflowStatus) {\r\n        require (currentStatus == WorkflowStatus.registrationVoters, \"The proposal registration is over !\");\r\n\r\n        WorkflowStatus oldStatus = currentStatus;\r\n        currentStatus = WorkflowStatus.ProposalsRegistrationStarted;\r\n        emit WorkflowStatusChange(oldStatus, currentStatus);\r\n\r\n        return currentStatus;\r\n    }\r\n\r\n    //Registered voters are allowed to register their proposals while the registration session is active\r\n    function registerProposal(string memory _proposal)  external {\r\n        require (currentStatus == WorkflowStatus.ProposalsRegistrationStarted, \"The proposal registration vote is over !\");\r\n        require(whitelist[msg.sender].isRegistered, \"You're not in the whitelist !!!\");\r\n\r\n        proposalIDs.increment();\r\n        //whitelist[msg.sender].votedProposalId = proposalIDs.current();\r\n        proposalList[proposalIDs.current()].description = _proposal;\r\n        emit ProposalRegistered(proposalIDs.current()); \r\n    }\r\n\r\n    //Voting administrator ends proposal recording session\r\n    function EndProposalsRegistration() public onlyOwner returns(WorkflowStatus) {\r\n        require (currentStatus == WorkflowStatus.ProposalsRegistrationStarted, \"The proposal registration vote is over !\");\r\n\r\n        WorkflowStatus oldStatus = currentStatus;\r\n        currentStatus = WorkflowStatus.ProposalsRegistrationEnded;\r\n        emit WorkflowStatusChange(oldStatus, currentStatus);\r\n\r\n        return currentStatus;\r\n    }\r\n\r\n    //The voting administrator starts the voting session\r\n    function StartVoting() public onlyOwner returns(WorkflowStatus) {\r\n\r\n        require (currentStatus == WorkflowStatus.ProposalsRegistrationEnded, \"The voting is over !\");\r\n\r\n        WorkflowStatus oldStatus = currentStatus;\r\n        currentStatus = WorkflowStatus.VotingSessionStarted;\r\n        emit WorkflowStatusChange(oldStatus, currentStatus);\r\n\r\n        return currentStatus;\r\n\r\n    }\r\n\r\n    //Voters can vote for their favorite proposal\r\n    function Vote(uint256 _proposalID) external {\r\n        require (currentStatus == WorkflowStatus.VotingSessionStarted, \"The voting is over !\");\r\n        require(whitelist[msg.sender].isRegistered, \"You're not in the whitelist !\");\r\n        require(!whitelist[msg.sender].hasVoted, \"You're already voted\");\r\n        require(keccak256(bytes(proposalList[_proposalID].description)) != keccak256(bytes(\"\")), \"This proposal ID does not exist\");\r\n\r\n        whitelist[msg.sender].votedProposalId = _proposalID;\r\n        whitelist[msg.sender].hasVoted = true;\r\n        proposalList[_proposalID].voteCount+=1;\r\n        \r\n        if (proposalList[winningProposalId].voteCount < proposalList[_proposalID].voteCount){\r\n              winningProposalId = _proposalID;\r\n        }\r\n        emit Voted(msg.sender, _proposalID );\r\n\r\n    }\r\n\r\n    //The voting administrator ends the voting session\r\n    function EndVoting() public onlyOwner returns(WorkflowStatus) {\r\n        require (currentStatus == WorkflowStatus.VotingSessionStarted, \"The voting is over !\");\r\n\r\n        WorkflowStatus oldStatus = currentStatus;\r\n        currentStatus = WorkflowStatus.VotingSessionEnded;\r\n        emit WorkflowStatusChange(oldStatus, currentStatus);\r\n\r\n        return currentStatus;\r\n         \r\n    }\r\n    \r\n    //L'administrateur du vote comptabilise les votes\r\n    function countVotes() public onlyOwner returns(WorkflowStatus) {\r\n        require (currentStatus == WorkflowStatus.VotingSessionEnded, \"The counting of votes is over !\");\r\n\r\n        WorkflowStatus oldStatus = currentStatus;\r\n        currentStatus = WorkflowStatus.VotesTallied;\r\n        emit WorkflowStatusChange(oldStatus, currentStatus);\r\n\r\n        return currentStatus;\r\n    }\r\n}\r\n",
  "sourcePath": "C:\\Users\\yanni\\Documents\\Formation Alyra\\Truffle\\simple-storage-truffle\\contracts\\Voting.sol",
  "compiler": {
    "name": "solc",
    "version": "0.8.12+commit.f00d7308.Emscripten.clang"
  },
  "schemaVersion": "3.4.4",
  "updatedAt": "2022-03-13T19:38:12.035Z",
  "devdoc": {
    "kind": "dev",
    "methods": {
      "owner()": {
        "details": "Returns the address of the current owner."
      },
      "renounceOwnership()": {
        "details": "Leaves the contract without owner. It will not be possible to call `onlyOwner` functions anymore. Can only be called by the current owner. NOTE: Renouncing ownership will leave the contract without an owner, thereby removing any functionality that is only available to the owner."
      },
      "transferOwnership(address)": {
        "details": "Transfers ownership of the contract to a new account (`newOwner`). Can only be called by the current owner."
      }
    },
    "version": 1
  },
  "userdoc": {
    "kind": "user",
    "methods": {},
    "version": 1
  }
}